:10E00000F2B0100020000220304000E4B240805AFC
:10E01000200131400003D242FE105600D242FF10D0
:10E020005700B2403CA24002B012ECE3B24042A51D
:10E030002A01F24010002100F24010002200F240BC
:10E04000EB007800F24080007900F2404C007A004A
:10E05000D2C37800F2437C00F24007007B00764296
:10E06000B01234E3F24348023D4066E2B0126CE382
:10E070005493FA233D406CE2B0126CE33E407EE2E2
:10E080007490050009245493F523B012BAE37490F8
:10E09000AA00FB233E4084E23D4078E2B0126CE3EC
:10E0A00074900500DE240D4EB0126CE35493F427F7
:10E0B0003D4090E2B0126CE34493FA23B012BAE30D
:10E0C000C2444E02B0129EE2F2B080004E02F0272F
:10E0D000B2F040004E0206203D4072E2B0126CE306
:10E0E0004493BF208243440282434602B24000026E
:10E0F0004C02B240BE014A02B012F0E21E420802D7
:10E100001F420A02B012B6E282434A02B012F0E2A3
:10E11000D2420B024C02D2420C024D02D2420D02FC
:10E1200042021E4216020E930420D2D34F021E4218
:10E1300024020F430E5E0F6F1E520E020F63B012C9
:10E14000B6E2D2B34F0208241E422C021F422E0216
:10E150001C422402B012A8E2B012DCE237400002F6
:10E1600087430000874302003840200239402000E6
:10E17000B012CAE3C844000018531983F923388049
:10E180002000889300001E24B890E5000000EE27D0
:10E19000F8B01E000B00EA2388931E00E723B89016
:10E1A000FF1B1C00E323D897020002005C4801001B
:10E1B0005C7701006C486C77D92B38E0200037E0A1
:10E1C0002000D43FB01296E2C79300004A241E47B5
:10E1D0001A000F43D2B34F0202241F4714005C42BF
:10E1E0004202B012A8E2D2B34F0205203E40200006
:10E1F0000F43B012B6E2F2400C007A00B012DCE23B
:10E200003A4000E47B42B24000A52C01B24000023B
:10E210005002B24002A52801CA430000B24040A506
:10E220002801B012CAE34BE4CA4400001A533A90E2
:10E23000FEFF042492835002F423E83FB24000E042
:10E24000FEFFB24000A52801B24010A52C01B0127B
:10E25000CAE34BE4B01296E24B930320F2D01000D5
:10E26000210032D03000400000000095480000013D
:10E27000AA875000000200157700000000656900C1
:10E28000000000E56940000000774C0000000061DC
:10E290007A00000000FD3D408AE2B0126CE3B0124B
:10E2A00096E3B01296E3773C2E830F730C110E5E4B
:10E2B0000F6F0C11FC23F2B34E020B2012124C0212
:10E2C00012114C020E5E0F6F12114C02FB23B24171
:10E2D0004C02825E4602826F44023041F24052009C
:10E2E00043023D404302B01256E34493FA232B3CD1
:10E2F000F24040004902F240510043023D404302D7
:10E30000B01256E34493F723B01246E382934A02D5
:10E310000624B012BAE3168392834A02F7233940E7
:10E320000002B012BAE31683C94400001953D28325
:10E330004902F723B012BAE31683FC23B012BAE302
:10E34000B012BAE33041B012BAE37490FE00FB237E
:10E350003640000230419210460292104402B01240
:10E360006CE3921046029210440230413C40060099
:10E37000B012BAE3F2D010002100B012E6E3F2C00E
:10E3800010002100B012E6E3754DB012AAE3B012FE
:10E39000BEE31C83F9233C400B001C830424B01211
:10E3A000BAE37493FA2730417543D2B37900FD275D
:10E3B000C2457C00F2427B003041B012A8E3D2B3E8
:10E3C0007900FD2754427C003041B012BAE3168335
:10E3D000012430410412B012BAE3B012BAE3B01211
:10E3E00046E334413041B2400E0040029283400285
:04E3F000FD23304198
:04E4000032D03000E6
:02FFFE0000E021
:00000001FF
