:10E00000F2B0100020000220304000E4B240805AFC
:10E01000200131400003D242FE105600D242FF10D0
:10E020005700B2403CA24002B012F0E3B24042A519
:10E030002A01F24010002100F24010002200F240BC
:10E04000EB007800F24080007900F2404C007A004A
:10E05000D2C37800F2437C00F24007007B00764296
:10E06000B01238E3F24348023D406AE2B01270E376
:10E070005493FA233D4070E2B01270E33E4082E2D6
:10E080007490050009245493F523B012BEE37490F4
:10E09000AA00FB233E4088E23D407CE2B01270E3E0
:10E0A00074900500E0240D4EB01270E35493F427F1
:10E0B0003D4094E2B01270E34493FA23B012BEE301
:10E0C000C2444E02B012A2E2F2B080004E02F0272B
:10E0D000B2F040004E0206203D4076E2B01270E3FE
:10E0E0004493C1208243440282434602B24000026C
:10E0F0004C02B240BE014A02B012F4E21E420802D3
:10E100001F420A02B012BAE282434A02B012F4E29B
:10E11000D2420B024C02D2420C024D02D2420D02FC
:10E1200042021E4216020E930420D2D34F021E4218
:10E1300024020F430E5E0F6F1E520E020F63B012C9
:10E14000BAE2D2B34F0208241E422C021F422E0212
:10E150001C422402B012ACE2B012E0E237400002EE
:10E1600087430000874302003840200239402000E6
:10E17000B012CEE3C844000018531983F923388045
:10E180002000889300002024B890E5000000EE27CE
:10E19000F8B01E000B00EA2388931E00E723B89016
:10E1A000FF1B1C00E323D897020002005C4801001B
:10E1B0005C7701005C4800005C770000D72B38E0FA
:10E1C000200037E02000D23FB0129AE2C79300004F
:10E1D0004A241E471A000F43D2B34F0202241F479E
:10E1E00014005C424202B012ACE2D2B34F020520EE
:10E1F0003E4020000F43B012BAE2F2400C007A0019
:10E20000B012E0E23A4000E40B43B24000A52C011A
:10E21000B24000025002B24002A52801CA430000E9
:10E22000B24040A52801B012CEE34BE4CA4400003E
:10E230001A533A90FEFF042492835002F423E83FDD
:10E24000B24000E0FEFFB24000A52801B24010A598
:10E250002C01B012CEE34BE4B0129AE24B930320B0
:10E26000F2D01000210032D03000400000000095B4
:10E2700048000001AA875000000200157700000046
:10E2800000656900000000E56940000000774C006F
:10E29000000000617A00000000FD3D408EE2B012F7
:10E2A00070E3B0129AE3B0129AE3773C2E830F73B7
:10E2B0000C110E5E0F6F0C11FC23F2B34E020B20FB
:10E2C00012124C0212114C020E5E0F6F12114C0210
:10E2D000FB23B2414C02825E4602826F440230410F
:10E2E000F240520043023D404302B0125AE34493CD
:10E2F000FA232B3CF24040004902F2405100430215
:10E300003D404302B0125AE34493F723B0124AE36C
:10E3100082934A020624B012BEE3168392834A0215
:10E32000F72339400002B012BEE31683C94400004F
:10E330001953D2834902F723B012BEE31683FC239C
:10E34000B012BEE3B012BEE33041B012BEE374902F
:10E35000FE00FB233640000230419210460292102C
:10E360004402B01270E3921046029210440230410F
:10E370003C400600B012BEE3F2D010002100B01203
:10E38000EAE3F2C010002100B012EAE3754DB012CA
:10E39000AEE3B012C2E31C83F9233C400B001C83A4
:10E3A0000424B012BEE37493FA2730417543D2B30C
:10E3B0007900FD27C2457C00F2427B003041B0125B
:10E3C000ACE3D2B37900FD2754427C003041B01257
:10E3D000BEE31683012430410412B012BEE3B01232
:10E3E000BEE3B0124AE334413041B2400E00400275
:08E3F00092834002FD2330413D
:04E4000032D03000E6
:02FFFE0000E021
:00000001FF
