:10E00000F2B010002000FC2532C2B240805A20013C
:10E0100031400003D242FE105600D242FF1057009A
:10E02000B2403CA24002B012F0E3B24042A52A0145
:10E03000C2432E00F2D010002100F2D010002200C6
:10E04000F240EB007800F24080007900F2404C0092
:10E050007A00D2C37800F2437C00F24007007B00D4
:10E060007642B0123EE3F24348023D4076E2B012FF
:10E0700072E35493FA233D407CE2B01272E33E40D7
:10E080008EE27490050009245493F523B012C0E386
:10E090007490AA00FB233E4094E23D4088E2B01217
:10E0A00072E374900500DA240D4EB01272E35493BB
:10E0B000F4273D40A0E2B01272E34493FA23B01279
:10E0C000C0E3C2444E02B012AEE2F2B080004E0293
:10E0D000F027B2F040004E0206203D4082E2B0122E
:10E0E00072E34493BB208243440282434602B2401F
:10E0F00000024C02B240BE014A02B01200E31E42CE
:10E1000008021F420A02B012C6E282434A02B0125B
:10E1100000E3D2420B024C02D2420C024D02D24228
:10E120000D0242021E4216020E930420D2D34F0269
:10E130001E4224020F430E5E0F6F1E520E020F632B
:10E14000B012C6E2D2B34F0208241E422C021F4274
:10E150002E021C422402B012B8E2B012ECE23740A8
:10E160000002874300003840200239402000B012EE
:10E17000D0E3C844000018531983F92338802000E5
:10E18000C89300001D24F890E5000000EE27F8B0C9
:10E190001E000B00EA2388931E00E723B890FF1BA4
:10E1A0001C00E32398100200A810989702000200B8
:10E1B0002C482C77DA2B38E0200037E02000D53FC0
:10E1C000B012A6E2C793000049241E471A000F436D
:10E1D000D2B34F0202241F4714005C424202B01225
:10E1E000B8E2D2B34F0205203E4020000F43B012E8
:10E1F000C6E2F2400C007A00B012ECE23A4000E4D1
:10E200007B42B24000A52C01B24000025002B24055
:10E2100002A52801CA430000B24040A52801B0125F
:10E22000D0E3CA4400001A533A90FEFF04249283BC
:10E230005002F523E93FB24000E0FEFFB24000A5E6
:10E240002801B24010A52C01B012D0E3B012A6E212
:10E250004B930420F2D22200F2D22100F2C010002F
:10E260002200F2B01000200001240B431B83F9238D
:10E2700032D2824320014000000000954800000196
:10E28000AA875000000200157700000000656900B1
:10E29000000000E56940000000774C0000000061CC
:10E2A0007A00000000FD3D409AE2B01272E3B01225
:10E2B0009CE3B0129CE3723C2E830F730C110E5E34
:10E2C0000F6F0C11FC23F2B34E020B2012124C0202
:10E2D00012114C020E5E0F6F12114C02FB23B24161
:10E2E0004C02825E4602826F44023041F24052008C
:10E2F00043023D404302B0125CE34493FA23263CC0
:10E30000F24040004902F240510043023D404302C6
:10E31000B0125CE34493F723B0124CE3394000029F
:10E32000B012C0E3168382934A02032492834A0206
:10E33000F73FC94400001953D2834902F123B012B8
:10E34000C0E31683FC23B012C0E33A3CB012C0E332
:10E350007490FE00FB2336400002304192104602CA
:10E3600092104402B01272E39210460292104402DC
:10E3700030413C400600B012C0E3F2D01000210052
:10E38000B012EAE3F2C010002100B012EAE3754DCA
:10E39000B012B0E3B012C4E31C83F9233C400B007D
:10E3A0001C830424B012C0E37493FA2730417543F0
:10E3B000D2B37900FD27C2457C00F2427B00304198
:10E3C000B012AEE3D2B37900FD2754427C00304155
:10E3D000B012C0E34BE41683012430410412B012A2
:10E3E00046E3B0124CE334413041B2400E004002EB
:08E3F00092834002FD2330413D
:10E40000B240805A200131400003D242FE10560033
:10E41000D242FF105700F2C010002200F2B01000EC
:0EE42000200001200B431B83F92382432001BF
:02FFFE0000E021
:00000001FF
