:10C00000F2B0100020000220304000C4B240805A3C
:10C01000200131400004D242FE105600D242FF10EF
:10C020005700B2403CA24002B012F4C3B24042A555
:10C030002A01F24010002100F24010002200F240DC
:10C04000A9006800F240C1006900E2426A00C243F0
:10C050006B00B240E0002600B240E0004100D2C3D5
:10C0600069007642B0123AC3F24348023D406CC2C6
:10C07000B01272C35493FA233D4072C2B01272C31D
:10C080003E4084C27490050009245493F523B012F5
:10C09000C2C37490AA00FB233E408AC23D407EC2C8
:10C0A000B01272C374900500DF240D4EB01272C33B
:10C0B0005493F4273D4096C2B01272C34493FA23BE
:10C0C000B012C2C3C2444E02B012A4C2F2B0800089
:10C0D0004E02F027B2F040004E0206203D4078C2EA
:10C0E000B01272C34493C02082434402824346028A
:10C0F000B24000024C02B240BE014A02B012F6C287
:10C100001E4208021F420A02B012BCC282434A0207
:10C11000B012F6C2D2420B024C02D2420C024D02C5
:10C12000D2420D0242021E4216020E930420D2D3C6
:10C130004F021E4224020F430E5E0F6F1E520E026C
:10C140000F63B012BCC2D2B34F0208241E422C02AD
:10C150001F422E021C422402B012AEC2B012E2C232
:10C160003740000287430000874302003840200226
:10C1700039402000B012D2C3C844000018531983BC
:10C18000F92338802000889300002024B890E5002F
:10C190000000EE27F8B01E000B00EA2388931E0073
:10C1A000E723B890FF3B1C00E323D897020002006E
:10C1B0005C4801005C7701005C4800005C7700008F
:10C1C000D72B38E0200037E02000D23FB0129CC2CD
:10C1D000C793000049241E471A000F43D2B34F02F1
:10C1E00002241F4714005C424202B012AEC2D2B316
:10C1F0004F0205203E4020000F43B012BCC2D24384
:10C200006A00B012E2C23A4000C40B43B24000A53B
:10C210002C01B24000025002B24002A52801CA43DC
:10C220000000B24040A52801B012D2C34BE4CA447A
:10C2300000001A533A90FEFF042492835002F42324
:10C24000E83FB24000C0FEFFB24000A52801B24066
:10C2500010A52C01B012D2C34BE4B0129CC24B9378
:10C260000320F2D01000210032D030004000000046
:10C27000009548000001AA875000000200157700D1
:10C28000000000656900000000E5694000000077DB
:10C290004C00000000617A00000000FD3D4090C2AB
:10C2A000B01272C3B012A2C3B012A2C37A3C2E83E2
:10C2B0000F730C110E5E0F6F0C11FC23F2B34E02C4
:10C2C0000B2012124C0212114C020E5E0F6F121153
:10C2D0004C02FB23B2414C02825E4602826F440252
:10C2E0003041F240520043023D404302B0125CC371
:10C2F0004493FA232B3CF24040004902F2405100A3
:10C3000043023D404302B0125CC34493F723B01292
:10C310004CC382934A020624B012C2C3168392838E
:10C320004A02F72339400002B012C2C31683C9443F
:10C3300000001953D2834902F723B012C2C31683F7
:10C34000FC23B012C2C3B012C2C33041B012C2C388
:10C350007490FE00FB2336400002304192104602EA
:10C3600092104402B01272C392104602921044021C
:10C3700030413C400600D2B36D00FD23B012C2C371
:10C38000F2D010002100B012EEC3F2C01000210064
:10C39000B012EEC3754DB012B6C3B012C6C31C8343
:10C3A000F9233C400B001C830424B012C2C37493D5
:10C3B000FA2730417543F2B20300FD27C2456F00F2
:10C3C0003041B012B4C3E2B20300FD2754426E0004
:10C3D0003041B012C2C31683012430410412B0129E
:10C3E000C2C3B012C2C3B0124CC334413041B240D8
:0CC3F0000E00400292834002FD23304109
:04C4000032D0300006
:02FFFE0000C041
:00000001FF
