:10C00000F2B0100020000220304000C4B240805A3C
:10C01000200131400004D242FE105600D242FF10EF
:10C020005700B2403CA24002B012F0C3B24042A559
:10C030002A01F24010002100F24010002200F240DC
:10C04000A9006800F240C1006900E2426A00C243F0
:10C050006B00B240E0002600B240E0004100D2C3D5
:10C0600069007642B01236C3F24348023D4068C2CE
:10C07000B0126EC35493FA233D406EC2B0126EC329
:10C080003E4080C27490050009245493F523B012F9
:10C09000BEC37490AA00FB233E4086C23D407AC2D4
:10C0A000B0126EC374900500DD240D4EB0126EC345
:10C0B0005493F4273D4092C2B0126EC34493FA23C6
:10C0C000B012BEC3C2444E02B012A0C2F2B0800091
:10C0D0004E02F027B2F040004E0206203D4074C2EE
:10C0E000B0126EC34493BE20824344028243460290
:10C0F000B24000024C02B240BE014A02B012F2C28B
:10C100001E4208021F420A02B012B8C282434A020B
:10C11000B012F2C2D2420B024C02D2420C024D02C9
:10C12000D2420D0242021E4216020E930420D2D3C6
:10C130004F021E4224020F430E5E0F6F1E520E026C
:10C140000F63B012B8C2D2B34F0208241E422C02B1
:10C150001F422E021C422402B012AAC2B012DEC23A
:10C160003740000287430000874302003840200226
:10C1700039402000B012CEC3C844000018531983C0
:10C18000F92338802000889300001E24B890E50031
:10C190000000EE27F8B01E000B00EA2388931E0073
:10C1A000E723B890FF3B1C00E323D897020002006E
:10C1B0005C4801005C7701006C486C77D92B38E053
:10C1C000200037E02000D43FB01298C2C79300008F
:10C1D00049241E471A000F43D2B34F0202241F47BF
:10C1E00014005C424202B012AAC2D2B34F02052030
:10C1F0003E4020000F43B012B8C2D2436A00B012D2
:10C20000DEC23A4000C47B42B24000A52C01B240DD
:10C2100000025002B24002A52801CA430000B24009
:10C2200040A52801B012CEC34BE4CA4400001A5303
:10C230003A90FEFF042492835002F423E83FB24078
:10C2400000C0FEFFB24000A52801B24010A52C019D
:10C25000B012CEC34BE4B01298C24B930320F2D07D
:10C260001000210032D0300040000000009548004E
:10C270000001AA8750000002001577000000006549
:10C280006900000000E56940000000774C000000F4
:10C2900000617A00000000FD3D408CC2B0126EC308
:10C2A000B0129EC3B0129EC37A3C2E830F730C1142
:10C2B0000E5E0F6F0C11FC23F2B34E020B20121214
:10C2C0004C0212114C020E5E0F6F12114C02FB2336
:10C2D000B2414C02825E4602826F44023041F2401B
:10C2E000520043023D404302B01258C34493FA2324
:10C2F0002B3CF24040004902F240510043023D40D5
:10C300004302B01258C34493F723B01248C3829338
:10C310004A020624B012BEC3168392834A02F72350
:10C3200039400002B012BEC31683C944000019533D
:10C33000D2834902F723B012BEC31683FC23B01286
:10C34000BEC3B012BEC33041B012BEC37490FE0073
:10C35000FB23364000023041921046029210440204
:10C36000B0126EC3921046029210440230413C401B
:10C370000600D2B36D00FD23B012BEC3F2D0100090
:10C380002100B012EAC3F2C010002100B012EAC3CB
:10C39000754DB012B2C3B012C2C31C83F9233C4026
:10C3A0000B001C830424B012BEC37493FA273041DF
:10C3B0007543F2B20300FD27C2456F003041B01251
:10C3C000B0C3E2B20300FD2754426E003041B01208
:10C3D000BEC31683012430410412B012BEC3B01292
:10C3E000BEC3B01248C334413041B2400E004002D7
:08C3F00092834002FD2330415D
:04C4000032D0300006
:02FFFE0000C041
:00000001FF
