:10C00000F2B010002000FC2532C2B240805A20015C
:10C0100031400004D242FE105600D242FF105700B9
:10C02000B2403CA24002B012F4C3B24042A52A0181
:10C03000C2432E00F2D010002100F2D010002200E6
:10C04000F240A9006800F240C1006900E2426A00C3
:10C05000C2436B00B240E0002600B240E000410065
:10C06000D2C369007642B01240C3F24348023D4059
:10C0700078C2B01274C35493FA233D407EC2B0120A
:10C0800074C33E4090C27490050009245493F52374
:10C09000B012C4C37490AA00FB233E4096C23D4038
:10C0A0008AC2B01274C374900500D9240D4EB01228
:10C0B00074C35493F4273D40A2C2B01274C3449396
:10C0C000FA23B012C4C3C2444E02B012B0C2F2B0DE
:10C0D00080004E02F027B2F040004E0206203D40A4
:10C0E00084C2B01274C34493BA2082434402824390
:10C0F0004602B24000024C02B240BE014A02B012F7
:10C1000002C31E4208021F420A02B012C8C2824382
:10C110004A02B01202C3D2420B024C02D2420C02BB
:10C120004D02D2420D0242021E4216020E9304201C
:10C13000D2D34F021E4224020F430E5E0F6F1E52D7
:10C140000E020F63B012C8C2D2B34F0208241E42BF
:10C150002C021F422E021C422402B012BAC2B0129C
:10C16000EEC23740000287430000384020023940C9
:10C170002000B012D4C3C844000018531983F92317
:10C1800038802000C89300001D24F890E5000000CE
:10C19000EE27F8B01E000B00EA2388931E00E72369
:10C1A000B890FF3B1C00E32398100200A81098975A
:10C1B000020002002C482C77DA2B38E0200037E010
:10C1C0002000D53FB012A8C2C793000048241E47E4
:10C1D0001A000F43D2B34F0202241F4714005C42DF
:10C1E0004202B012BAC2D2B34F0205203E40200034
:10C1F0000F43B012C8C2D2436A00B012EEC23A4036
:10C2000000C47B42B24000A52C01B24000025002A3
:10C21000B24002A52801CA430000B24040A528014F
:10C22000B012D4C3CA4400001A533A90FEFF04244B
:10C2300092835002F523E93FB24000C0FEFFB240B6
:10C2400000A52801B24010A52C01B012D4C3B01231
:10C25000A8C24B930420F2D22200F2D22100F2C0F5
:10C2600010002200F2B01000200001240B431B83B9
:10C27000F92332D28243200140000000009548009B
:10C280000001AA8750000002001577000000006539
:10C290006900000000E56940000000774C000000E4
:10C2A00000617A00000000FD3D409CC2B01274C3E2
:10C2B000B012A4C3B012A4C3753C2E830F730C112B
:10C2C0000E5E0F6F0C11FC23F2B34E020B20121204
:10C2D0004C0212114C020E5E0F6F12114C02FB2326
:10C2E000B2414C02825E4602826F44023041F2400B
:10C2F000520043023D404302B0125EC34493FA230E
:10C30000263CF24040004902F240510043023D40C9
:10C310004302B0125EC34493F723B0124EC33940B8
:10C320000002B012C4C3168382934A02032492838C
:10C330004A02F73FC94400001953D2834902F1234E
:10C34000B012C4C31683FC23B012C4C33B3CB0126A
:10C35000C4C37490FE00FB233640000230419210AB
:10C36000460292104402B01274C392104602921018
:10C37000440230413C400600D2B36D00FD23B012B0
:10C38000C4C3F2D010002100B012EEC3F2C01000FE
:10C390002100B012EEC3754DB012B8C3B012C8C3BD
:10C3A0001C83F9233C400B001C830424B012C4C33B
:10C3B0007493FA2730417543F2B20300FD27C2455A
:10C3C0006F003041B012B6C3E2B20300FD27544201
:10C3D0006E003041B012C4C34BE4168301243041D7
:10C3E0000412B01248C3B0124EC334413041B240BF
:0CC3F0000E00400292834002FD23304109
:10C40000B240805A200131400004D242FE10560052
:10C41000D242FF105700F2C010002200F2B010000C
:0EC42000200001200B431B83F92382432001DF
:02FFDE00000021
:02FFFE0000C041
:00000001FF
